:020000040800F2
:100000000000032061110008B3110008C1110008AD
:10001000C7110008CD110008D3110008000000002E
:10002000000000000000000000000000D9110008DE
:10003000E711000800000000F51100081118000881
:10004000B1110008B1110008B1110008B111000888
:10005000B1110008B1110008B1110008B111000878
:10006000B1110008B1110008B1110008B111000868
:10007000B1110008D1130008B1110008691300087C
:10008000B1110008B1110008B1110008B111000848
:10009000B1110008B1110008B1110008B111000838
:1000A000B1110008B1110008B1110008B111000828
:1000B000B1110008B1110008B1110008B111000818
:1000C000B1110008B1110008B1110008B111000808
:1000D000B1110008B1110008B1110008B1110008F8
:1000E000B1110008B1110008B1110008B1110008E8
:1000F000B1110008B1110008B1110008B1110008D8
:10010000B1110008B1110008B1110008B1110008C7
:10011000B1110008B1110008B1110008B1110008B7
:10012000B1110008B1110008B1110008B1110008A7
:10013000B1110008B1110008B1110008B111000897
:10014000B1110008B1110008B1110008B111000887
:10015000B1110008B1110008B1110008B111000877
:10016000B1110008B1110008B1110008B111000867
:10017000B1110008B1110008B1110008B111000857
:10018000B1110008B1110008B1110008B111000847
:10019000B1110008B1110008B1110008B111000837
:0C01A000B1110008B1110008B1110008F5
:1001AC0010B5054C237833B9044B13B10448AFF3A5
:1001BC0000800123237010BD1000002000000000FF
:1001CC00B028000808B5034B1BB103490348AFF333
:1001DC00008008BD0000000014000020B0280008BA
:1001EC0080B500AF00F008F900F02AF900F090F9A2
:1001FC00204800F0F7F800211F4801F088FD034665
:10020C00012B1CD11D4800F0EDF801220D211C48DA
:10021C0001F018FD4FF47A7001F006FB00220D215D
:10022C00174801F00FFD4FF47A7001F0FDFA01222E
:10023C000D21134801F006FD00F026F816E01148D8
:10024C0000F0D0F801220E210D4801F0FBFC4FF418
:10025C007A7001F0E9FA00220E21094801F0F2FC53
:10026C004FF47A7001F0E0FA00F090F80023184691
:10027C0080BD00BFC828000800000240E428000828
:10028C00001802401C29000880B582B000AF002382
:10029C00FB71C8220021384802F0FCFA0123364ACF
:1002AC003649374801F01BFA334B1B78FB71FB794D
:1002BC009BB2344A3149324801F011FA2E4B5B782B
:1002CC00513B0D2B52D801A252F823F01103000818
:1002DC001903000821030008290300083103000852
:1002EC0039030008410300084903000851030008C2
:1002FC00590300086103000869030008790300082A
:10030C00710300081C4800F023F933E01A4800F090
:10031C0069F92FE0184800F0A1F92BE0164800F01D
:10032C00E9F927E0144800F031FA23E0124800F014
:10033C00FFFA1FE0104800F065FB1BE00E4800F0D0
:10034C00E1FB17E00C4800F02FFC13E00A4800F02A
:10035C0081FC0FE0084800F0C7FC0BE0064800F0F9
:10036C00CDFC07E0044800F081FA03E0064800F0F9
:10037C0039F800BF8DE700BF34000020FC000020DE
:10038C0000100140350000205429000880B584B0CD
:10039C0000AF0F4800F026F80E4B1B68FB60F968A5
:1003AC000D4800F01FF8FB683B603B6883F308883E
:1003BC000A4B1B68BB60BB687B60B968084800F0DF
:1003CC0011F87B68984700BF1037BD4680BD00BF51
:1003DC007429000800800008A8290008048000087F
:1003EC00C82900080FB480B400AF00BFBD465DF84B
:1003FC00047B04B07047000080B500AF01F042FAF6
:10040C0001F0BEFA0D4801F023FA0C2001F050FA6D
:10041C00002001F04DFA062001F04AFA032001F009
:10042C0047FAA42001F044FA912001F041FA162079
:10043C0001F03EFA01F0B8FA00BF80BD8F5F0100F9
:10044C0080B500AF2F4B09221A602E4B02221A7175
:10045C002C4B00225A712B4B03229A71294B0022F0
:10046C00DA712849284801F0ABFB072209212648FC
:10047C0001F01BFC234B0A221A60224B02221A7138
:10048C00204B00225A711F4B03229A711D4B0022E4
:10049C00DA711C491C4801F093FB07220A211A4807
:1004AC0001F003FC174B00221A60164B00221A7144
:1004BC00144B0222DA71134B00225A71114B002299
:1004CC009A711049104801F07BFB0E4B0D221A60FB
:1004DC000C4B01221A710B4B00225A71094B002252
:1004EC00DA71084B02229A710649084801F068FB40
:1004FC00044B0E221A600349044801F061FB00BF53
:10050C0080BD00BF2C0000200000024000180240FB
:10051C0080B500AF0C4B00221A800B4B00225A8086
:10052C00094B0022DA80084B00221A81064B0C2260
:10053C009A72054B40F20D329A800349034801F040
:10054C003EF800BF80BD00BFFC0000200010014041
:10055C0080B586B000AF78601D48FFF743FF1D4B98
:10056C001B7801337B617B69043B1A4A13441B687B
:10057C003B617B69043B3A691946164800F036FC2E
:10058C000346002B1AD11448FFF72CFF7B681B780D
:10059C000121184600F0FEFB00F0C2FD0346FB7380
:1005AC00FB7B1946FB7B1A460C48FFF71BFF07F138
:1005BC000F030121184600F0BBFD04E00848FFF7CB
:1005CC0011FF00F001FC00BF1837BD4680BD00BF15
:1005DC00042A000834000020342A0008542A000899
:1005EC00782A000880B584B000AF78601648FFF711
:1005FC00F9FE164B1B780133FB60FB68043B134A76
:10060C0013441B68BB60FB68043BBA6819460F486F
:10061C0000F0ECFB0346002B0DD10D48FFF7E2FE7A
:10062C007B681B780B21184600F0B4FB0B210948A2
:10063C0000F07EFD04E00848FFF7D4FE00F0C4FB98
:10064C0000BF1037BD4680BD982A0008340000203A
:10065C00342A000800000020C82A000880B586B0A3
:10066C0000AF78600023FB811D48FFF7BBFE1D4BDC
:10067C001B7801337B617B69043B1A4A13441B686A
:10068C003B617B69043B3A691946164800F0AEFBA6
:10069C000346002B1AD11448FFF7A4FE7B681B7885
:1006AC000221184600F076FB00F0D2FB0346FB81DA
:1006BC00FB891946FB891A460C48FFF793FE07F194
:1006CC000E030221184600F033FD04E00848FFF742
:1006DC0089FE00F079FB00BF1837BD4680BD00BF16
:1006EC00EC2A000834000020342A00081C2B0008D7
:1006FC00C82A000880B586B000AF78600023FB7371
:10070C001D48FFF76FFE1D4B1B7801337B617B6926
:10071C00043B1A4A13441B683B617B69043B3A69EE
:10072C001946164800F062FB0346002B1AD11448F8
:10073C00FFF758FE7B681B780121184600F02AFB56
:10074C0000F094FB0346FB73FB7B1946FB7B1A46BC
:10075C000C48FFF747FE07F10F030121184600F084
:10076C00E7FC04E00848FFF73DFE00F02DFB00BF5E
:10077C001837BD4680BD00BF402B00083400002058
:10078C00342A00081C2B0008C82A000880B588B041
:10079C0000AF78600023FB610023FB720123BB7266
:1007AC002B48FFF71FFE2B4B1B780133BB61BB693A
:1007BC00043B284A13441B687B61BB69043B7A6980
:1007CC001946244800F012FB0346002B36D1224870
:1007DC00FFF708FE7B681B780121184600F0DAFA57
:1007EC007B68D3F80230FB61F9691C48FFF7FAFD0E
:1007FC00F86900F04FFB0346002B15D107F10B03F2
:10080C000121184600F094FCFB6904331B683B6122
:10081C003B69FB601248FFF7E5FD4FF0010080F3E8
:10082C001088FB6898470EE00E48FFF7DBFD07F1D8
:10083C000A030121184600F07BFC04E00A48FFF78C
:10084C00D1FD00F0C1FA00BF2037BD4680BD00BF0E
:10085C00702B000834000020342A00089C2B000860
:10086C00B82B0008E02B0008C82A000880B586B019
:10087C0000AF78600023FB732648FFF7B3FD264BCF
:10088C001B7801337B617B69043B234A13441B684F
:10089C003B617B69043B3A6919461F4800F0A6FA94
:1008AC000346002B2DD11D48FFF79CFD7B681B7860
:1008BC000121184600F06EFA7B6802331B7819464A
:1008CC007B6803331B781A461548FFF78BFD012212
:1008DC000E21144801F0B6F900F036FB0346FB7309
:1008EC00FB7B19461048FFF77DFD00220E210D48B9
:1008FC0001F0A8F907F10F030121184600F018FCCC
:10090C0004E00A48FFF76EFD00F05EFA00BF1837EE
:10091C00BD4680BD042C000834000020342A000899
:10092C003C2C000800180240702C0008C82A000853
:10093C0080B586B000AF78600023FB732A48FFF7C0
:10094C0051FD2A4B1B7801337B617B69043B274AA1
:10095C0013441B683B617B69043B3A691946234885
:10096C0000F044FA0346002B35D12148FFF73AFD3D
:10097C007B681B780121184600F00CFA7B68023367
:10098C001B7819467B6803331B781A461948FFF706
:10099C0029FD01220E21184801F054F97B6802331D
:1009AC001A787B6803331B781946104600F0EDFA71
:1009BC000346FB73FB7B19461048FFF713FD00221F
:1009CC000E210D4801F03EF907F10F0301211846E5
:1009DC0000F0AEFB04E00A48FFF704FD00F0F4F968
:1009EC0000BF1837BD4680BD982C0008340000208D
:1009FC00342A00083C2C000800180240702C000817
:100A0C00C82A000880B588B000AF78600023FB735B
:100A1C007B689B79FB777B68D3F80230BB613048ED
:100A2C00FFF7E0FC2F4B1B7801337B617B69043BA8
:100A3C002C4A13441B683B617B69043B3A69194699
:100A4C00284800F0D3F90346002B40D12648FFF785
:100A5C00C9FC7B681B780121184600F09BF9B96929
:100A6C002248FFF7BFFCB86900F014FA0346002BCC
:100A7C0021D11F48FFF7B6FC01220E211D4801F0C1
:100A8C00E1F87B680733FA7FB969184600F0DFFAA2
:100A9C000346FB73FB7B19461748FFF7A3FC0022A8
:100AAC000E21144801F0CEF807F10F03012118466E
:100ABC0000F03EFB10E01148FFF794FC0123FB73A0
:100ACC0007F10F030121184600F032FB04E00C483B
:100ADC00FFF788FC00F078F900BF2037BD4680BDD9
:100AEC00CC2C000834000020342A0008FC2C000810
:100AFC00242D000800180240702C00084C2D000812
:100B0C00C82A000880B586B000AF78600023FB735C
:100B1C002048FFF767FC204B1B7801337B617B6916
:100B2C00043B1D4A13441B683B617B69043B3A69D7
:100B3C001946194800F05AF90346002B21D11748E1
:100B4C00FFF750FC7B681B780121184600F022F956
:100B5C007B6802331B7818467B6803331B780022B2
:100B6C00194600F0A2FA0346FB73FB7B19460C48AE
:100B7C00FFF738FC07F10F030121184600F0D8FAF3
:100B8C0004E00848FFF72EFC00F01EF900BF1837F0
:100B9C00BD4680BD982C000834000020342A000883
:100BAC00702C0008C82A000880B588B000AF7860A7
:100BBC0000233B610023FB600023FB612048FFF70F
:100BCC0011FC204B1B780133BB611E4B9B79FB61E5
:100BDC00BB69043B1B4A13441B687B61BB69043B28
:100BEC007A691946174800F001F90346002B1DD10C
:100BFC001548FFF7F7FB7B681A78FB69DBB201330A
:100C0C00DBB21946104600F0C5F801F045F90F4B60
:100C1C001B683B613B691B68FB60FB695A1C07F155
:100C2C000C031146184600F083FA04E00848FFF75D
:100C3C00D9FB00F0C9F800BF2037BD4680BD00BF0E
:100C4C00042C000834000020342A00083E00002048
:100C5C00C82A000880B586B000AF78600023FB601E
:100C6C001C48FFF7BFFB1C4B1B7801337B617B6976
:100C7C00043B194A13441B683B617B69043B3A698A
:100C8C001946154800F0B2F80346002B18D113484A
:100C9C00FFF7A8FB7B681B780421184600F07AF854
:100CAC0000F037FA0346FB60FB6819460C48FFF767
:100CBC0099FB07F10C030421184600F039FA04E003
:100CCC000848FFF78FFB00F07FF800BF1837BD46D0
:100CDC0080BD00BF982C000834000020342A000886
:100CEC00782D0008C82A000880B483B000AF786063
:100CFC0000BF0C37BD465DF8047B704780B586B0ED
:100D0C0000AF78600023FB731D48FFF76BFB1D4B96
:100D1C001B7801337B617B69043B1A4A13441B68C3
:100D2C003B617B69043B3A691946164800F05EF852
:100D3C000346002B1BD11448FFF754FB7B681B7830
:100D4C000121184600F026F801220021002000F0B5
:100D5C00ACF90346FB73FB7B19460C48FFF742FBCF
:100D6C0007F10F030121184600F0E2F904E00848EE
:100D7C00FFF738FB00F028F800BF1837BD4680BDE0
:100D8C00982D000834000020342A0008702C00082C
:100D9C00C82A000880B584B000AF03460A46FB7130
:100DAC001346BB71A5233B73BB797B7307F10C0313
:100DBC0002221946034800F070FC00BF1037BD46F4
:100DCC0080BD00BF0010014080B582B000AF7F2312
:100DDC00FB71FB1D01221946034800F05EFC00BFAD
:100DEC000837BD4680BD00BF0010014080B588B0FB
:100DFC0000AFF860B9607A600023FB61FF23BB6130
:100E0C000023FB610FE0FA68FB6913441B787B61DC
:100E1C0007F11403012219460C4801F0E3FCB861F8
:100E2C00FB690133FB61FA69BB689A42EBD3074853
:100E3C0001F0FBFCBA697B689A4201D1002300E007
:100E4C00012318462037BD4680BD00BF003002404C
:100E5C0080B582B000AF0023FB8001F0AFFC0346ED
:100E6C00FB80FB8818460837BD4680BD80B483B034
:100E7C0000AF0023FB71064B3B603B681B681B0AF1
:100E8C00FB71FB7918460C37BD465DF8047B704747
:100E9C0000C0FF1F80B483B000AF78607B68B3F1F3
:100EAC00005F05D37B681F4A934201D8002332E0D0
:100EBC007B681D4A934205D97B681C4A934201D832
:100ECC00002328E07B681A4A934205D97B68194AAB
:100EDC00934201D800231EE07B68B3F1006F05D369
:100EEC007B68B3F1026F01D2002314E07B68124AD5
:100EFC00934205D97B68114A934201D800230AE03A
:100F0C007B680F4A934205D97B680E4A934201D8FD
:100F1C00002300E0012318460C37BD465DF8047B26
:100F2C00704700BF00C00120FFBF0120400002201D
:100F3C00FFFF012000000320FF3F02400050024051
:100F4C00FFFFFE1F0078FF1F80B586B000AF3B4649
:100F5C0000221A605A609A60DA601A610323FB75EA
:100F6C0001233B6003237B6000F096FF02233B616F
:100F7C003B46184601F09CFA0346FB7500F0AAFFAD
:100F8C00FB7D18461837BD4680BD80B588B000AFD4
:100F9C0003460A46FB711346BB7107F10803002296
:100FAC001A605A609A60DA601A610023FB77FF239B
:100FBC00BB77FB79FF2B02D0FB79172B42D8FB793F
:100FCC00FF2B04D10123BB600323FB602BE0FB79D7
:100FDC000B2B12D8FB79C3F10B03FB77BA79FB7F90
:100FEC009A4201D9FB7FBB710023BB60FB793B614B
:100FFC00BB797B610123FB6015E0FB790B2B12D9CC
:10100C00FB79172B0FD8FB79C3F11703FB77BA7950
:10101C00FB7F9A4201D9FB7FBB710023BB60FB793C
:10102C003B61BB797B6100F037FF0223BB6107F1A9
:10103C000803184600F086FE0346BB7700F04AFF13
:10104C00BB7F00E0042318462037BD4680BD90B519
:10105C0087B000AFF860B9607A600023FB7500239D
:10106C003B6100F019FF00233B6113E0BA683B6958
:10107C00D118FA683B6913441B78DBB24FF00004BB
:10108C001A462346002000F099FE0346FB753B6987
:10109C0001333B613A697B689A42E7D300F01AFF4F
:1010AC00FB7D18461C37BD4690BD80B582B000AFA5
:1010BC0078600B46FB701346BB70BB78012B07D1D5
:1010CC0000F0CEFE00F028FF00F016FF00231CE01D
:1010DC00FB78012B0AD100F0C3FEFB781946786827
:1010EC0001F0C4F800F008FF00230EE0FB78022B9F
:1010FC000AD100F0B5FEFB781946786800F042FF83
:10110C0000F0FAFE002300E0FF2318460837BD4626
:10111C0080BD80B500AF01F085F80346184680BD50
:10112C0080B400AF10231846BD465DF8047B7047B1
:10113C0080B582B000AF786039603B68DBB21A468C
:10114C007968034800F0A9FA00BF0837BD4680BD96
:10115C0000100140DFF834D0002103E00C4B5B5849
:10116C00435004310B480C4B42189A42F6D30B4AAD
:10117C0002E0002342F8043B094B9A42F9D300F0F9
:10118C003BF801F063FBFFF72BF8704700000320DE
:10119C00E02D0008000000201000002010000020AE
:1011AC001C010020FEE780B400AF00BFBD465DF817
:1011BC00047B704780B400AFFEE780B400AFFEE75D
:1011CC0080B400AFFEE780B400AFFEE780B400AFA0
:1011DC0000BFBD465DF8047B704780B400AF00BF14
:1011EC00BD465DF8047B704780B400AF00BFBD46C0
:1011FC005DF8047B7047000080B500AF164A164BB3
:10120C00D3F8883043F47003C2F88830134A134B78
:10121C001B6843F001031360104B00229A600F4AC5
:10122C000E4B1B6823F0847323F4803313600B4B39
:10123C000B4A5A60094A094B1B6823F4802313603C
:10124C00064B0022DA6000F00DF8034B4FF0006201
:10125C009A6000BF80BD00BF00ED00E00038024086
:10126C001030002480B483B000AF00237B600023D7
:10127C003B60364A354B1B6843F480331360334B69
:10128C001B6803F400333B607B6801337B603B6875
:10129C00002B03D17B68B3F5A06FF0D12B4B1B68EF
:1012AC0003F40033002B02D001233B6001E0002348
:1012BC003B603B68012B02D1244B254A5A60234AE0
:1012CC00224B1B6C43F080531364224A214B1B6846
:1012DC0043F4404313601D4A1C4B9B6893601B4AAC
:1012EC001A4B9B6843F400439360184A174B9B6856
:1012FC0043F4A0539360154A144B1B6843F080735E
:10130C00136000BF114B1B6803F00073002BF9D066
:10131C00114B40F205721A600C4A0C4B9B6823F07F
:10132C0003039360094A094B9B6843F002039360E3
:10133C0000BF064B9B6803F00C03082BF9D100BFD0
:10134C000C37BD465DF8047B704700BF0038024087
:10135C00085A400700700040003C024080B500AFC6
:10136C001249134800F06EF80346002B1BD00021E5
:10137C000F4800F04BF80D490D4800F09FF80D4B4D
:10138C004FF420421A6000BF0B490C4800F0E4F8FF
:10139C000346002BF8D00121084800F0BDF8084B9B
:1013AC001B6800221A7000BF80BD00BF2000002007
:1013BC00706002400C00002004000010005C004033
:1013CC000C01002080B500AF4FF081510C4800F0AB
:1013DC0039F80346002B10D001210A4800F09CF884
:1013EC000021074800F012F84FF08151044800F03A
:1013FC0065F8054B1B6800221A8000BF80BD00BF3A
:10140C0040600240005C00401401002080B483B0B6
:10141C0000AF78600B46FB70FB78002B06D07B6826
:10142C001B6843F001027B681A6005E07B681B684F
:10143C0023F001027B681A6000BF0C37BD465DF8D3
:10144C00047B704780B487B000AF786039600023AC
:10145C00FB750023FB607B68154A934202D8154B41
:10146C003B6101E0144B3B613B6803F00053002BE4
:10147C0003D03B695B68FB6002E03B691B68FB6067
:10148C00FB6823F0F02323F08213FB60FA683B68BF
:10149C001340002B02D00123FB7501E00023FB75E8
:1014AC00FB7D18461C37BD465DF8047B704700BFBA
:1014BC000F640240006002400064024080B485B0BA
:1014CC0000AF786039607B68104A934202D8104BA9
:1014DC00FB6001E00F4BFB603B6803F00053002BFB
:1014EC0007D03B6823F0F02323F08213FA68D36013
:1014FC0006E03B6823F0F02323F08213FA68936034
:10150C0000BF1437BD465DF8047B70470F64024082
:10151C00006002400064024080B483B000AF786089
:10152C000B46FB70FB78002B08D07B681B889BB2AA
:10153C0043F400739AB27B681A8007E07B681B88BF
:10154C009BB223F400739AB27B681A8000BF0C37ED
:10155C00BD465DF8047B704780B487B000AF7860FF
:10156C0039600023FB7500233B610023FB607B6823
:10157C00FB603B681B0F3B613B6823F07F433B6088
:10158C003B69002B03D0FB681433FB6005E03B6820
:10159C001B0C3B60FB681833FB60FB681A683B68EC
:1015AC001340002B02D00123FB7501E00023FB75D7
:1015BC00FB7D18461C37BD465DF8047B704780B533
:1015CC0084B000AF786039600023FB60786800F06D
:1015DC00FDF87B681B693A6812891A437B681A61AB
:1015EC003B68DA883B681B8813439BB21A463B68FE
:1015FC009B7A13433A6852881343FB607B68DA6822
:10160C00FB681A437B68DA603B689B881A467B68E8
:10161C009A603B689B89012B0CD13B689B89B3F585
:10162C00806F07D17B685B693A6892891A437B6843
:10163C005A6106E07B68DB683A6892891A437B68DA
:10164C00DA607B681B6923F490427B681A617B68C3
:10165C005B6923F02A027B685A617B68DB6843F480
:10166C0000527B68DA6000BF1037BD4680BD80B485
:10167C0083B000AF78600B46FB7000BF7B681B68C3
:10168C0003F08003002BF9D0FA787B685A6000BF16
:10169C000C37BD465DF8047B704780B586B000AF53
:1016AC00F860B9601346FB710023FB75BB68002B17
:1016BC0011D00023FB750AE0FB7DBA6813441B783C
:1016CC001946F868FFF7D3FFFB7D0133FB75FA7DF4
:1016DC00FB799A42F0D300BF1837BD4680BD80B469
:1016EC0087B000AFF860B9607A607B807B887B82C2
:1016FC0062E07B8A9BB2013B9BB27B82BB68DB883E
:10170C00B3F5805F2FD100BFFB681B6803F020038B
:10171C00202BF9D1FB68DB6823F4D072FB68DA600C
:10172C00FB685B6923F00102FB685A617B687B6193
:10173C00BB681B88002B0BD1FB685B689BB2C3F3A7
:10174C0008039AB27B691A807B6801337B6033E0B3
:10175C00FB685B689BB2DBB29AB27B691A807B68D0
:10176C0001337B6028E000BFFB681B6803F020039B
:10177C00202BF9D1FB68DB6823F4D072FB68DA60AC
:10178C00FB685B6923F00102FB685A61BB681B882C
:10179C00002B07D17B685A1C7A60FA685268D2B267
:1017AC001A7009E07B685A1C7A60FA685268D2B2E7
:1017BC0002F07F02D2B21A707B8A9BB2002B98D1B6
:1017CC0000BF1C37BD465DF8047B704780B483B006
:1017DC0000AF78607B68C0221A607B6800229A6038
:1017EC007B680022DA607B6800221A617B68002229
:1017FC005A617B6800229A6100BF0C37BD465DF8C8
:10180C00047B704780B400AF064B1B68002B04D0E0
:10181C00044B1B68013B034A136000BFBD465DF8D7
:10182C00047B70471801002080B483B000AF78604F
:10183C00064A7B68136000BF044B1B68002BFBD16E
:10184C0000BF0C37BD465DF8047B704718010020C3
:10185C0080B483B000AF7860074A7B681360074B95
:10186C0000221A60064B07221A6000BF0C37BD46D7
:10187C005DF8047B704700BF14E000E018E000E066
:10188C0010E000E080B400AF084A084B1B6843F03E
:10189C000103136000BF054B1B6803F00203002B10
:1018AC00F9D000BFBD465DF8047B7047003802409C
:1018BC0080B483B000AF0346FB71FB791F2B09D8B2
:1018CC002E492E4B1B6BFA79012000FA02F21343BE
:1018DC000B634DE0FB791F2B0FD9FB793F2B0CD8F9
:1018EC00FB79203BFB712549244B5B6BFA7901207A
:1018FC0000FA02F213434B633AE0FB793F2B10D909
:10190C0097F90730002B0CDBFB79403BFB711B4933
:10191C001A4B9B6BFA79012000FA02F213438B638A
:10192C0026E097F90730002B0FDAFB799F2B0CD8A8
:10193C00FB79803BFB711149104B1B6CFA79012030
:10194C0000FA02F213430B6412E0FB799F2B0FD9C0
:10195C00FB79BF2B0CD8FB796033FB710749074B24
:10196C005B6CFA79012000FA02F213434B64FFE737
:10197C0000BF0C37BD465DF8047B70470038024051
:10198C0080B400AF064B074A1A60054A044B1B682B
:10199C0043F4C063136000BFBD465DF8047B704721
:1019AC000CED00E00000FA0580B400AF7C4B4FF06A
:1019BC0028421A607B4B4FF420721A607A4B00223B
:1019CC001A607A4B00221A60794B00221A60794B0C
:1019DC0000221A60784B00221A60784B00221A60A1
:1019EC006F4B00225A606F4B00225A606E4B0022E4
:1019FC005A606E4B00225A606D4B00225A606D4B40
:101A0C0000225A606C4B00225A606C4B00225A60C8
:101A1C00634B4FF040629A60624BC0229A60624BFB
:101A2C0000229A60614B00229A60614B00229A60FE
:101A3C00604B00229A60604B00229A605F4B002240
:101A4C009A60574B4FF0C842DA60564B4FF48052B5
:101A5C00DA60554B0022DA60544B0022DA60544BAA
:101A6C000022DA60534B0022DA60534B0022DA601A
:101A7C00524B0022DA604A4B00221A61494B002279
:101A8C001A61494B00221A61484B00221A61484BDB
:101A9C0000221A61474B00221A61474B00221A613F
:101AAC00464B00221A613E4B00225A613D4B0022EC
:101ABC005A613D4B00225A613C4B00225A613C4B0F
:101ACC0000225A613B4B00225A613B4B00225A6167
:101ADC003A4B00225A61324B00221A83314B0022BE
:101AEC001A83314B00221A83304B00221A83304B5D
:101AFC0000221A832F4B00221A832F4B00221A83A9
:101B0C002E4B00221A83264B00225A83254B00228F
:101B1C005A83254B00225A83244B00225A83244B90
:101B2C0000225A83234B00225A83234B00225A83D0
:101B3C00224B00225A831A4B00221A62194B0022A4
:101B4C001A62194B00221A62184B00221A62184BA7
:101B5C0000221A62174B00221A62174B00221A62DB
:101B6C00164B00221A620E4B00225A620D4B0022B9
:101B7C005A620D4B00225A620C4B00225A620C4BDB
:101B8C0000225A620B4B00225A620B4B00225A6203
:101B9C000A4B00225A6200BFBD465DF8047B7047B9
:101BAC00000002400004024000080240000C024009
:101BBC00001002400014024000180240001C0240B9
:101BCC0080B483B000AF786039603B681B680F2B22
:101BDC0032D87B681A683B681B7919463B681B68CE
:101BEC005B0001FA03F31A437B681A607B689A68FE
:101BFC003B689B7919463B681B685B0001FA03F351
:101C0C001A437B689A607B685A683B685B79194613
:101C1C003B681B6801FA03F31A437B685A607B68C4
:101C2C00DA683B68DB7919463B681B685B0001FA94
:101C3C0003F31A437B68DA6000BF0C37BD465DF8CE
:101C4C00047B704780B483B000AF78600B46FB70A8
:101C5C001346BB70FB780F2B21D8BB78002B10D010
:101C6C00012B00D01BE07B681B8B1AB2FB78012187
:101C7C0001FA03F31BB213431BB29AB27B681A83AB
:101C8C000DE07B685B8B1AB2FB78012101FA03F340
:101C9C001BB213431BB29AB27B685A8300BF00BFBE
:101CAC000C37BD465DF8047B704780B483B000AF41
:101CBC0078600B46FB701346BB70FB780F2B20D85B
:101CCC00FB78072B0AD87B681B6AB978FA789200E4
:101CDC0001FA02F21A437B681A6212E0FB78072BB6
:101CEC000FD9FB780F2B0CD8FB78083BFB707B686B
:101CFC005B6AB978FA78920001FA02F21A437B68AF
:101D0C005A6200BF0C37BD465DF8047B704780B447
:101D1C0085B000AF78600B46FB700023FB73FB783B
:101D2C000F2B08D87B681A69FB7822FA03F3DBB215
:101D3C0003F00103FB73FB7B18461437BD465DF8BB
:101D4C00047B704780B584B000AF78600023FB60E3
:101D5C007B681B68012B02D1786800F0A9FB00F0AE
:101D6C0061F80346002B22D17B689B68FB6014E072
:101D7C007B681B69DBB2F968184600F0E9FB00F0E0
:101D8C0051F80346002B05D10B4A0B4B1B6923F072
:101D9C00FA031361FB680133FB607B68DA687B68CC
:101DAC009B681A44FB689A42E2D800F031FC00238D
:101DBC0018461037BD4680BD003C024080B584B04B
:101DCC0000AFF860B960C7E9002300F02BF80346B8
:101DDC00002B20D1FB68002B05D13B781946B86845
:101DEC0000F05CFC19E0FB68012B05D13B8819461F
:101DFC00B86800F075FC10E0FB68022B05D13B685D
:101E0C001946B86800F08EFC07E0D7E90023B868E3
:101E1C0000F0A8FC01E0012300E000231846103775
:101E2C00BD4680BD80B400AF00BF0C4BDB6803F433
:101E3C008033002BF9D1094BDB6803F00103002B35
:101E4C0005D0064A054BDB6843F00103D360002341
:101E5C001846BD465DF8047B704700BF003C02404D
:101E6C0080B400AF094B5B6903F00103002B07D072
:101E7C00064B074A9A60054B064A9A60002300E01D
:101E8C0001231846BD465DF8047B7047003C0240B8
:101E9C003B2A19087F6E5D4C80B400AF0A4B1B695E
:101EAC00002B0BDA084B094A5A60074B084A5A6058
:101EBC00054B1B69002B01DA012300E000231846B7
:101ECC00BD465DF8047B7047003C0240230167452A
:101EDC00AB89EFCD80B400AF064A064B1B6943F0CB
:101EEC0000431361034B1B6901231846BD465DF883
:101EFC00047B7047003C024080B400AF054A054BA0
:101F0C005B6943F00103536100231846BD465DF83D
:101F1C00047B7047003C024080B400AF00BF184BFC
:101F2C00DB6803F48033002BF9D1154B5B69144B40
:101F3C005B69002B1EDB124A114B5B6943F07F631C
:101F4C0043F4702353610E4A0D4B9B6943F07F633E
:101F5C0043F4702393610A4A094B5B6943F0020313
:101F6C00536100BF064BDB6803F48033002BF9D1BF
:101F7C00002300E001231846BD465DF8047B704742
:101F8C00003C024080B485B000AF78600B46FB701B
:101F9C000023FB600023BB6000BFA04BDB6803F495
:101FAC008033002BF9D1FB78022B40F030819B4A17
:101FBC009A4B5B6943F000435361984B5B69DA437E
:101FCC00974B1340FB60954A944B5B6923F07F63FE
:101FDC0023F4702353619149904B5A69FB68134366
:101FEC004B618E4B9B69DA438D4B1340BB608B4A24
:101FFC008A4B9B6923F07F6323F470239361874999
:10200C00864B9A69BB6813438B617B680B2B73D827
:10201C007B680B2B6ED801A252F823F059200008D4
:10202C006720000875200008832000089120000814
:10203C009F200008AD200008BB200008C920000824
:10204C00D7200008E5200008F3200008734A734BE2
:10205C005B6943F480335361CCE0704A6F4B5B692E
:10206C0043F400335361C5E06C4A6C4B5B6943F439
:10207C0080235361BEE0694A684B5B6943F40023DB
:10208C005361B7E0654A654B5B6943F48013536158
:10209C00B0E0624A614B5B6943F400135361A9E001
:1020AC005E4A5E4B5B6943F480035361A2E05B4A7A
:1020BC005A4B5B6943F4000353619BE0574A574BFF
:1020CC005B6943F08073536194E0544A534B5B69F2
:1020DC0043F0007353618DE0504A504B5B6943F001
:1020EC008063536186E04D4A4C4B5B6943F000635F
:1020FC0053617FE001238BE07B680B2B7AD97B68E3
:10210C00172B77D87B680C3B7B607B680B2B6FD8CD
:10211C0001A252F823F000BF5521000863210008EA
:10212C00712100087F2100088D2100089B210008E7
:10213C00A9210008B7210008C5210008D3210008F7
:10214C00E1210008EF210008344A344B9B6943F429
:10215C00803393614EE0314A304B9B6943F400333A
:10216C00936147E02D4A2D4B9B6943F48023936187
:10217C0040E02A4A294B9B6943F40023936139E0E0
:10218C00264A264B9B6943F48013936132E0234A21
:10219C00224B9B6943F4001393612BE01F4A1F4BA6
:1021AC009B6943F48003936124E01C4A1B4B9B699D
:1021BC0043F4000393611DE0184A184B9B6943F0EC
:1021CC008073936116E0154A144B9B6943F00073BE
:1021DC0093610FE0114A114B9B6943F0806393614B
:1021EC0008E00E4A0D4B9B6943F00063936101E0DC
:1021FC0001230DE0094A094B5B6943F0020353616B
:10220C0000BF064BDB6803F48033002BF9D10023AD
:10221C0018461437BD465DF8047B7047003C0240FD
:10222C000000FF0F80B485B000AF0D4B1B889BB234
:10223C00DB43C3F30B03FB600A4B1B889BB2DB43F2
:10224C001B031A46084B1340BB60FA68BB68134368
:10225C007B607B6818461437BD465DF8047B70477D
:10226C00163C02401A3C024000F0FF0080B483B0E0
:10227C0000AF78600B46FB7000BF8C4BDB6803F43F
:10228C008033002BF9D1FB78012B40F00881874A71
:10229C00864B5B6923F0004353617B680B2B73D82F
:1022AC007B680B2B6ED801A252F823F0E9220008B0
:1022BC00F722000805230008132300082123000837
:1022CC002F2300083D2300084B2300085923000846
:1022DC00672300087523000883230008734A734B97
:1022EC005B6923F480335361CCE0704A6F4B5B69BC
:1022FC0023F400335361C5E06C4A6C4B5B6923F4E7
:10230C0080235361BEE0694A684B5B6923F4002368
:10231C005361B7E0654A654B5B6923F480135361E5
:10232C00B0E0624A614B5B6923F400135361A9E08E
:10233C005E4A5E4B5B6923F480035361A2E05B4A07
:10234C005A4B5B6923F4000353619BE0574A574B8C
:10235C005B6923F08073536194E0544A534B5B697F
:10236C0023F0007353618DE0504A504B5B6923F0AE
:10237C008063536186E04D4A4C4B5B6923F00063EC
:10238C0053617FE001238BE07B680B2B7AD97B6850
:10239C00172B77D87B680C3B7B607B680B2B6FD83B
:1023AC0001A252F823F000BFE5230008F323000834
:1023BC00012400080F2400081D2400082B24000809
:1023CC003924000847240008552400086324000819
:1023DC00712400087F240008344A344B9B6923F491
:1023EC00803393614EE0314A304B9B6923F40033C8
:1023FC00936147E02D4A2D4B9B6923F48023936115
:10240C0040E02A4A294B9B6923F40023936139E06D
:10241C00264A264B9B6923F48013936132E0234AAE
:10242C00224B9B6923F4001393612BE01F4A1F4B33
:10243C009B6923F48003936124E01C4A1B4B9B692A
:10244C0023F4000393611DE0184A184B9B6923F099
:10245C008073936116E0154A144B9B6923F000734B
:10246C0093610FE0114A114B9B6923F080639361D8
:10247C0008E00E4A0D4B9B6923F00063936101E069
:10248C0001230DE0094A094B5B6943F002035361D8
:10249C0000BF064BDB6803F48033002BF9D100231B
:1024AC0018460C37BD465DF8047B7047003C024073
:1024BC0080B582B000AF7860FFF7B4FC0346002B08
:1024CC003ED1224A214B1B6923F4407313617B6874
:1024DC005B68012B06D11D4A1C4B1B6943F004039E
:1024EC00136112E07B685B68022B06D1174A174B0D
:1024FC001B6943F40043136107E0144A134B1B6937
:10250C0043F4004343F00403136110490F4B1A6961
:10251C007B681B691B02134343F480330B61FFF789
:10252C0081FC0346002B07D1084A084B1B6923F496
:10253C00004323F00403136100F06AF8002300E069
:10254C00012318460837BD4680BD00BF003C024041
:10255C0080B485B000AF03463960FB710023FB608B
:10256C00FB79032B19D801A252F823F08925000816
:10257C008F250008972500089F2500080023FB6085
:10258C000FE04FF48073FB600BE04FF40073FB60C3
:10259C0007E04FF44073FB6003E04FF0FF33FB6048
:1025AC0000BFFB68B3F1FF3F28D03B680B2B02D96F
:1025BC003B6804333B60154A144B1B6923F440738E
:1025CC0013611249114B1A69FB6813430B610F4AD3
:1025DC000E4B1B6923F0F80313610C490B4B1A6962
:1025EC003B68DB00134343F002030B61074A074BC4
:1025FC001B6943F480331361002300E00123184668
:10260C001437BD465DF8047B704700BF003C0240A8
:10261C0080B400AF204B1B6803F40073002B17D061
:10262C001D4A1D4B1B6823F4007313601A4A1A4B86
:10263C001B6843F400631360174A174B1B6823F4A1
:10264C0000631360144A144B1B6843F4007313604B
:10265C00114B1B6803F48063002B17D00E4A0E4BF2
:10266C001B6823F4806313600B4A0B4B1B6843F409
:10267C0080531360084A084B1B6823F48053136083
:10268C00054A054B1B6843F48063136000BFBD46CD
:10269C005DF8047B704700BF003C024080B483B0FF
:1026AC0000AF78600B46FB700C4A0C4B1B6923F493
:1026BC0040731361094A094B1B691361074A074BA5
:1026CC001B6943F0010313617B68FA781A7000BF31
:1026DC000C37BD465DF8047B704700BF003C0240E0
:1026EC0080B483B000AF78600B467B800C4A0C4BF7
:1026FC001B6923F440731361094A094B1B6913616D
:10270C00074A074B1B6943F0010313617B687A8806
:10271C001A8000BF0C37BD465DF8047B704700BFC4
:10272C00003C024080B483B000AF786039600C4A42
:10273C000B4B1B6923F440731361094A084B1B694B
:10274C001361074A064B1B6943F0010313617B6855
:10275C003A681A6000BF0C37BD465DF8047B7047C1
:10276C00003C0240F0B484B000AFF860C7E900232D
:10277C00114A114B1B6923F4407313610E4A0E4B23
:10278C001B6913610C4A0C4B1B6943F00103136169
:10279C00FB683A681A60BFF36F8FFB6804331A4604
:1027AC0097E81800250000262B46136000BF103751
:1027BC00BD46F0BC704700BF003C024080B483B003
:1027CC0000AF0023FB80064B1B689BB2C3F30B03CB
:1027DC00FB80FB8818460C37BD465DF8047B7047C0
:1027EC00002004E080B487B000AFF860B9607A6074
:1027FC0000233B6100237B6109E07B699B00BA6885
:10280C0013441A68FB681A607B6901337B617A692F
:10281C007B689A42F1D3FB681B683B613B691846A5
:10282C001C37BD465DF8047B704780B483B000AFA5
:10283C0078607B689B6843F001027B689A6000BFFC
:10284C000C37BD465DF8047B7047000070B50D4E2B
:10285C000D4CA41BA4100025A54209D10B4E0C4C09
:10286C0000F020F8A41BA4100025A54205D170BDD2
:10287C0056F8253098470135EEE756F8253098473D
:10288C000135F2E7D82D0008D82D0008D82D000806
:10289C00DC2D000802440346934200D1704703F834
:1028AC00011BF9E7F8B500BFF8BC08BC9E467047A1
:0C28BC00F8B500BFF8BC08BC9E46704791
:1028C80048656C6C6F2046726F6D20546573742078
:1028D8004170702121200D0A00000000424C204464
:1028E80045425547204D53473A20427574746F6EE0
:1028F8006220697320707265737365642C20476F5A
:10290800696E6720746F20424C204D6F6F64200AF7
:102918000D000000424C204445425547204D534786
:102928003A20427574746F6E206973204E4F54209C
:10293800507265737365642C20476F20746F20751F
:1029480073657220636F6465200A0D00424C5F4412
:10295800454255475F4D53473A20496E76616C6949
:102968006420436F6D6D616E64200A00424C5F44C1
:10297800454255475F4D53473A20426F6F746C6F1D
:10298800616465725F4A756D625F546F5F55736508
:10299800725F4170706C69636174696F6E200A00C0
:1029A800424C5F44454255475F4D53473A204D538B
:1029B800502056616C7565203D202523780A00005B
:1029C800424C5F44454255475F4D53473A20557343
:1029D8006572204170706C69636174696F6E205212
:1029E800657365742048616E646C65722056616C0D
:1029F8007565203D202523780A000000424C5F447D
:102A0800454255475F4D53473A20426F6F744C6FAC
:102A1800616465722048616E646C657220476574F4
:102A28002056657273696F6E200A0000424C5F443D
:102A3800454255475F4D53473A20436865636B539A
:102A4800756D20537563657373200A00424C5F44AB
:102A5800454255475F4D53473A20424C20566572D0
:102A680073696F6E3A202564202523780A000000D8
:102A7800424C5F44454255475F4D53473A204368AF
:102A880065636B53756D204661696C2021210A00CE
:102A9800424C5F44454255475F4D53473A20426F89
:102AA8006F744C6F616465725F48616E646C655FDA
:102AB80047657448656C705F434D44200A00000008
:102AC800424C5F44454255475F4D53473A2043685F
:102AD80065636B53756D204661696C6564202F6E64
:102AE80000000000424C5F44454255475F4D534744
:102AF8003A20426F6F744C6F616465725F48616E13
:102B0800646C655F4765744349445F434D44200ADC
:102B180000000000424C5F44454255475F4D534713
:102B28003A4D4355206964203A20256420252378AE
:102B38002021210A00000000424C5F4445425547CD
:102B48005F4D53473A20426F6F744C6F61646572F2
:102B58005F48616E646C655F4765745244505F43BB
:102B68004D4444200A000000424C5F44454255470A
:102B78005F4D53473A20426F6F744C6F61646572C2
:102B88005F48616E646C655F476F5F434D44200A20
:102B980000000000424C5F44454255475F4D534793
:102BA8003A474F20616464723A202523780A00006E
:102BB800424C5F44454255475F4D53473A206A753A
:102BC8006D70696E6720746F20676F20616464722E
:102BD80065737321200A0000424C5F444542554703
:102BE8005F4D53473A474F206164647220696E769F
:102BF800616C69642021200A00000000424C5F4497
:102C0800454255475F4D53473A20426F6F744C6FAA
:102C1800616465725F48616E646C655F466C617380
:102C2800685F4D6173735F45726173655F434D44BF
:102C3800200A0000424C5F44454255475F4D5347C8
:102C48003A696E697469616C5F736563746F722049
:102C58003A20256420206E6F5F6F66736563746F1A
:102C680072733A2025640A00424C5F444542554736
:102C78005F4D53473A20666C6173682065726173D3
:102C880065207374617475733A202523780A0000EF
:102C9800424C5F44454255475F4D53473A20426F87
:102CA8006F744C6F616465725F48616E646C655FD8
:102CB800466C6173685F45726173655F434D44207C
:102CC8000A000000424C5F44454255475F4D534758
:102CD8003A20426F6F744C6F616465725F48616E31
:102CE800646C655F4D656D5F57726974655F434DD0
:102CF80044200A00424C5F44454255475F4D5347C4
:102D08003A206D656D20777269746520616464721C
:102D1800657373203A202523780A0000424C5F44EB
:102D2800454255475F4D53473A2076616C696420A8
:102D38006D656D207772697465206164647265736E
:102D4800730A0000424C5F44454255475F4D534764
:102D58003A20496E76616C6964204D656D5F5772E3
:102D68006974652041646472657373200A00000009
:102D7800424C5F44454255475F4D53473A206E5792
:102D88005250207374617475733A202523780A00B1
:102D9800424C5F44454255475F4D53473A20426F86
:102DA8006F744C6F616465725F48616E646C655FD7
:102DB80044697361626C655F52575F50726F7465E6
:102DC800746374696F6E5F434D44200A000000000D
:042DD800D10100081D
:042DDC00AD0100083D
:102DE000515253545556575A5B5C5E0000A0000088
:04000005080011617D
:00000001FF
